{
  "_format": "hh-sol-artifact-1",
  "contractName": "SkillWallet",
  "sourceName": "contracts/main/SkillWallet.sol",
  "abi": [
    {
      "inputs": [
        {
          "internalType": "address",
          "name": "_link",
          "type": "address"
        },
        {
          "internalType": "address",
          "name": "_vrfCoordinator",
          "type": "address"
        },
        {
          "internalType": "bytes32",
          "name": "_keyHash",
          "type": "bytes32"
        }
      ],
      "stateMutability": "nonpayable",
      "type": "constructor"
    },
    {
      "anonymous": false,
      "inputs": [
        {
          "indexed": true,
          "internalType": "address",
          "name": "owner",
          "type": "address"
        },
        {
          "indexed": true,
          "internalType": "address",
          "name": "approved",
          "type": "address"
        },
        {
          "indexed": true,
          "internalType": "uint256",
          "name": "tokenId",
          "type": "uint256"
        }
      ],
      "name": "Approval",
      "type": "event"
    },
    {
      "anonymous": false,
      "inputs": [
        {
          "indexed": true,
          "internalType": "address",
          "name": "owner",
          "type": "address"
        },
        {
          "indexed": true,
          "internalType": "address",
          "name": "operator",
          "type": "address"
        },
        {
          "indexed": false,
          "internalType": "bool",
          "name": "approved",
          "type": "bool"
        }
      ],
      "name": "ApprovalForAll",
      "type": "event"
    },
    {
      "anonymous": false,
      "inputs": [
        {
          "indexed": true,
          "internalType": "address",
          "name": "previousOwner",
          "type": "address"
        },
        {
          "indexed": true,
          "internalType": "address",
          "name": "newOwner",
          "type": "address"
        }
      ],
      "name": "OwnershipTransferred",
      "type": "event"
    },
    {
      "anonymous": false,
      "inputs": [
        {
          "indexed": true,
          "internalType": "uint256",
          "name": "skillWalletId",
          "type": "uint256"
        },
        {
          "components": [
            {
              "components": [
                {
                  "internalType": "uint256",
                  "name": "displayStringId",
                  "type": "uint256"
                },
                {
                  "internalType": "uint256",
                  "name": "level",
                  "type": "uint256"
                }
              ],
              "internalType": "struct Types.Skill",
              "name": "skill1",
              "type": "tuple"
            },
            {
              "components": [
                {
                  "internalType": "uint256",
                  "name": "displayStringId",
                  "type": "uint256"
                },
                {
                  "internalType": "uint256",
                  "name": "level",
                  "type": "uint256"
                }
              ],
              "internalType": "struct Types.Skill",
              "name": "skill2",
              "type": "tuple"
            },
            {
              "components": [
                {
                  "internalType": "uint256",
                  "name": "displayStringId",
                  "type": "uint256"
                },
                {
                  "internalType": "uint256",
                  "name": "level",
                  "type": "uint256"
                }
              ],
              "internalType": "struct Types.Skill",
              "name": "skill3",
              "type": "tuple"
            }
          ],
          "indexed": false,
          "internalType": "struct Types.SkillSet",
          "name": "newSkillSet",
          "type": "tuple"
        }
      ],
      "name": "SkillSetUpdated",
      "type": "event"
    },
    {
      "anonymous": false,
      "inputs": [
        {
          "indexed": true,
          "internalType": "uint256",
          "name": "skillWalletId",
          "type": "uint256"
        }
      ],
      "name": "SkillWalletActivated",
      "type": "event"
    },
    {
      "anonymous": false,
      "inputs": [
        {
          "indexed": true,
          "internalType": "uint256",
          "name": "skillWalletId",
          "type": "uint256"
        },
        {
          "indexed": false,
          "internalType": "address",
          "name": "newCommunity",
          "type": "address"
        }
      ],
      "name": "SkillWalletCommunityChanged",
      "type": "event"
    },
    {
      "anonymous": false,
      "inputs": [
        {
          "indexed": true,
          "internalType": "address",
          "name": "skillWalletOwner",
          "type": "address"
        },
        {
          "indexed": true,
          "internalType": "address",
          "name": "community",
          "type": "address"
        },
        {
          "indexed": true,
          "internalType": "uint256",
          "name": "skillWalletId",
          "type": "uint256"
        },
        {
          "components": [
            {
              "components": [
                {
                  "internalType": "uint256",
                  "name": "displayStringId",
                  "type": "uint256"
                },
                {
                  "internalType": "uint256",
                  "name": "level",
                  "type": "uint256"
                }
              ],
              "internalType": "struct Types.Skill",
              "name": "skill1",
              "type": "tuple"
            },
            {
              "components": [
                {
                  "internalType": "uint256",
                  "name": "displayStringId",
                  "type": "uint256"
                },
                {
                  "internalType": "uint256",
                  "name": "level",
                  "type": "uint256"
                }
              ],
              "internalType": "struct Types.Skill",
              "name": "skill2",
              "type": "tuple"
            },
            {
              "components": [
                {
                  "internalType": "uint256",
                  "name": "displayStringId",
                  "type": "uint256"
                },
                {
                  "internalType": "uint256",
                  "name": "level",
                  "type": "uint256"
                }
              ],
              "internalType": "struct Types.Skill",
              "name": "skill3",
              "type": "tuple"
            }
          ],
          "indexed": false,
          "internalType": "struct Types.SkillSet",
          "name": "skillSet",
          "type": "tuple"
        },
        {
          "indexed": false,
          "internalType": "uint256",
          "name": "randomNumber",
          "type": "uint256"
        }
      ],
      "name": "SkillWalletCreated",
      "type": "event"
    },
    {
      "anonymous": false,
      "inputs": [
        {
          "indexed": true,
          "internalType": "address",
          "name": "from",
          "type": "address"
        },
        {
          "indexed": true,
          "internalType": "address",
          "name": "to",
          "type": "address"
        },
        {
          "indexed": true,
          "internalType": "uint256",
          "name": "tokenId",
          "type": "uint256"
        }
      ],
      "name": "Transfer",
      "type": "event"
    },
    {
      "inputs": [
        {
          "internalType": "uint256",
          "name": "skillWalletId",
          "type": "uint256"
        },
        {
          "internalType": "uint256",
          "name": "randomNumber",
          "type": "uint256"
        }
      ],
      "name": "activateSkillWallet",
      "outputs": [],
      "stateMutability": "nonpayable",
      "type": "function"
    },
    {
      "inputs": [
        {
          "internalType": "address",
          "name": "to",
          "type": "address"
        },
        {
          "internalType": "uint256",
          "name": "tokenId",
          "type": "uint256"
        }
      ],
      "name": "approve",
      "outputs": [],
      "stateMutability": "nonpayable",
      "type": "function"
    },
    {
      "inputs": [
        {
          "internalType": "address",
          "name": "owner",
          "type": "address"
        }
      ],
      "name": "balanceOf",
      "outputs": [
        {
          "internalType": "uint256",
          "name": "",
          "type": "uint256"
        }
      ],
      "stateMutability": "view",
      "type": "function"
    },
    {
      "inputs": [],
      "name": "baseURI",
      "outputs": [
        {
          "internalType": "string",
          "name": "",
          "type": "string"
        }
      ],
      "stateMutability": "view",
      "type": "function"
    },
    {
      "inputs": [],
      "name": "cancelRequest",
      "outputs": [],
      "stateMutability": "nonpayable",
      "type": "function"
    },
    {
      "inputs": [
        {
          "internalType": "uint256",
          "name": "skillWalletId",
          "type": "uint256"
        }
      ],
      "name": "changeCommunity",
      "outputs": [],
      "stateMutability": "nonpayable",
      "type": "function"
    },
    {
      "inputs": [
        {
          "internalType": "address",
          "name": "skillWalletOwner",
          "type": "address"
        },
        {
          "components": [
            {
              "components": [
                {
                  "internalType": "uint256",
                  "name": "displayStringId",
                  "type": "uint256"
                },
                {
                  "internalType": "uint256",
                  "name": "level",
                  "type": "uint256"
                }
              ],
              "internalType": "struct Types.Skill",
              "name": "skill1",
              "type": "tuple"
            },
            {
              "components": [
                {
                  "internalType": "uint256",
                  "name": "displayStringId",
                  "type": "uint256"
                },
                {
                  "internalType": "uint256",
                  "name": "level",
                  "type": "uint256"
                }
              ],
              "internalType": "struct Types.Skill",
              "name": "skill2",
              "type": "tuple"
            },
            {
              "components": [
                {
                  "internalType": "uint256",
                  "name": "displayStringId",
                  "type": "uint256"
                },
                {
                  "internalType": "uint256",
                  "name": "level",
                  "type": "uint256"
                }
              ],
              "internalType": "struct Types.Skill",
              "name": "skill3",
              "type": "tuple"
            }
          ],
          "internalType": "struct Types.SkillSet",
          "name": "skillSet",
          "type": "tuple"
        },
        {
          "internalType": "string",
          "name": "url",
          "type": "string"
        }
      ],
      "name": "create",
      "outputs": [],
      "stateMutability": "nonpayable",
      "type": "function"
    },
    {
      "inputs": [
        {
          "internalType": "uint256",
          "name": "skillWalletId",
          "type": "uint256"
        }
      ],
      "name": "getActiveCommunity",
      "outputs": [
        {
          "internalType": "address",
          "name": "community",
          "type": "address"
        }
      ],
      "stateMutability": "view",
      "type": "function"
    },
    {
      "inputs": [
        {
          "internalType": "uint256",
          "name": "tokenId",
          "type": "uint256"
        }
      ],
      "name": "getApproved",
      "outputs": [
        {
          "internalType": "address",
          "name": "",
          "type": "address"
        }
      ],
      "stateMutability": "view",
      "type": "function"
    },
    {
      "inputs": [
        {
          "internalType": "uint256",
          "name": "skillWalletId",
          "type": "uint256"
        }
      ],
      "name": "getCommunityHistory",
      "outputs": [
        {
          "internalType": "address[]",
          "name": "communities",
          "type": "address[]"
        }
      ],
      "stateMutability": "view",
      "type": "function"
    },
    {
      "inputs": [
        {
          "internalType": "uint256",
          "name": "skillWalletId",
          "type": "uint256"
        }
      ],
      "name": "getRandomNumber",
      "outputs": [
        {
          "internalType": "uint256",
          "name": "randomNumber",
          "type": "uint256"
        }
      ],
      "stateMutability": "view",
      "type": "function"
    },
    {
      "inputs": [
        {
          "internalType": "uint256",
          "name": "skillWalletId",
          "type": "uint256"
        }
      ],
      "name": "getSkillSet",
      "outputs": [
        {
          "components": [
            {
              "components": [
                {
                  "internalType": "uint256",
                  "name": "displayStringId",
                  "type": "uint256"
                },
                {
                  "internalType": "uint256",
                  "name": "level",
                  "type": "uint256"
                }
              ],
              "internalType": "struct Types.Skill",
              "name": "skill1",
              "type": "tuple"
            },
            {
              "components": [
                {
                  "internalType": "uint256",
                  "name": "displayStringId",
                  "type": "uint256"
                },
                {
                  "internalType": "uint256",
                  "name": "level",
                  "type": "uint256"
                }
              ],
              "internalType": "struct Types.Skill",
              "name": "skill2",
              "type": "tuple"
            },
            {
              "components": [
                {
                  "internalType": "uint256",
                  "name": "displayStringId",
                  "type": "uint256"
                },
                {
                  "internalType": "uint256",
                  "name": "level",
                  "type": "uint256"
                }
              ],
              "internalType": "struct Types.Skill",
              "name": "skill3",
              "type": "tuple"
            }
          ],
          "internalType": "struct Types.SkillSet",
          "name": "skillSet",
          "type": "tuple"
        }
      ],
      "stateMutability": "view",
      "type": "function"
    },
    {
      "inputs": [
        {
          "internalType": "address",
          "name": "skillWalletOwner",
          "type": "address"
        }
      ],
      "name": "getSkillWalletIdByOwner",
      "outputs": [
        {
          "internalType": "uint256",
          "name": "",
          "type": "uint256"
        }
      ],
      "stateMutability": "view",
      "type": "function"
    },
    {
      "inputs": [],
      "name": "getTotalSkillWalletsRegistered",
      "outputs": [
        {
          "internalType": "uint256",
          "name": "",
          "type": "uint256"
        }
      ],
      "stateMutability": "view",
      "type": "function"
    },
    {
      "inputs": [
        {
          "internalType": "address",
          "name": "owner",
          "type": "address"
        },
        {
          "internalType": "address",
          "name": "operator",
          "type": "address"
        }
      ],
      "name": "isApprovedForAll",
      "outputs": [
        {
          "internalType": "bool",
          "name": "",
          "type": "bool"
        }
      ],
      "stateMutability": "view",
      "type": "function"
    },
    {
      "inputs": [
        {
          "internalType": "uint256",
          "name": "skillWalletId",
          "type": "uint256"
        }
      ],
      "name": "isSkillWalletActivated",
      "outputs": [
        {
          "internalType": "bool",
          "name": "status",
          "type": "bool"
        }
      ],
      "stateMutability": "view",
      "type": "function"
    },
    {
      "inputs": [
        {
          "internalType": "address",
          "name": "skillWalletOwner",
          "type": "address"
        }
      ],
      "name": "isSkillWalletRegistered",
      "outputs": [
        {
          "internalType": "bool",
          "name": "status",
          "type": "bool"
        }
      ],
      "stateMutability": "view",
      "type": "function"
    },
    {
      "inputs": [],
      "name": "name",
      "outputs": [
        {
          "internalType": "string",
          "name": "",
          "type": "string"
        }
      ],
      "stateMutability": "view",
      "type": "function"
    },
    {
      "inputs": [],
      "name": "owner",
      "outputs": [
        {
          "internalType": "address",
          "name": "",
          "type": "address"
        }
      ],
      "stateMutability": "view",
      "type": "function"
    },
    {
      "inputs": [
        {
          "internalType": "uint256",
          "name": "tokenId",
          "type": "uint256"
        }
      ],
      "name": "ownerOf",
      "outputs": [
        {
          "internalType": "address",
          "name": "",
          "type": "address"
        }
      ],
      "stateMutability": "view",
      "type": "function"
    },
    {
      "inputs": [
        {
          "internalType": "bytes32",
          "name": "requestId",
          "type": "bytes32"
        },
        {
          "internalType": "uint256",
          "name": "randomness",
          "type": "uint256"
        }
      ],
      "name": "rawFulfillRandomness",
      "outputs": [],
      "stateMutability": "nonpayable",
      "type": "function"
    },
    {
      "inputs": [],
      "name": "renounceOwnership",
      "outputs": [],
      "stateMutability": "nonpayable",
      "type": "function"
    },
    {
      "inputs": [
        {
          "internalType": "address",
          "name": "from",
          "type": "address"
        },
        {
          "internalType": "address",
          "name": "to",
          "type": "address"
        },
        {
          "internalType": "uint256",
          "name": "tokenId",
          "type": "uint256"
        }
      ],
      "name": "safeTransferFrom",
      "outputs": [],
      "stateMutability": "nonpayable",
      "type": "function"
    },
    {
      "inputs": [
        {
          "internalType": "address",
          "name": "from",
          "type": "address"
        },
        {
          "internalType": "address",
          "name": "to",
          "type": "address"
        },
        {
          "internalType": "uint256",
          "name": "tokenId",
          "type": "uint256"
        },
        {
          "internalType": "bytes",
          "name": "_data",
          "type": "bytes"
        }
      ],
      "name": "safeTransferFrom",
      "outputs": [],
      "stateMutability": "nonpayable",
      "type": "function"
    },
    {
      "inputs": [
        {
          "internalType": "address",
          "name": "operator",
          "type": "address"
        },
        {
          "internalType": "bool",
          "name": "approved",
          "type": "bool"
        }
      ],
      "name": "setApprovalForAll",
      "outputs": [],
      "stateMutability": "nonpayable",
      "type": "function"
    },
    {
      "inputs": [
        {
          "internalType": "bytes4",
          "name": "interfaceId",
          "type": "bytes4"
        }
      ],
      "name": "supportsInterface",
      "outputs": [
        {
          "internalType": "bool",
          "name": "",
          "type": "bool"
        }
      ],
      "stateMutability": "view",
      "type": "function"
    },
    {
      "inputs": [],
      "name": "symbol",
      "outputs": [
        {
          "internalType": "string",
          "name": "",
          "type": "string"
        }
      ],
      "stateMutability": "view",
      "type": "function"
    },
    {
      "inputs": [
        {
          "internalType": "uint256",
          "name": "index",
          "type": "uint256"
        }
      ],
      "name": "tokenByIndex",
      "outputs": [
        {
          "internalType": "uint256",
          "name": "",
          "type": "uint256"
        }
      ],
      "stateMutability": "view",
      "type": "function"
    },
    {
      "inputs": [
        {
          "internalType": "address",
          "name": "owner",
          "type": "address"
        },
        {
          "internalType": "uint256",
          "name": "index",
          "type": "uint256"
        }
      ],
      "name": "tokenOfOwnerByIndex",
      "outputs": [
        {
          "internalType": "uint256",
          "name": "",
          "type": "uint256"
        }
      ],
      "stateMutability": "view",
      "type": "function"
    },
    {
      "inputs": [
        {
          "internalType": "uint256",
          "name": "tokenId",
          "type": "uint256"
        }
      ],
      "name": "tokenURI",
      "outputs": [
        {
          "internalType": "string",
          "name": "",
          "type": "string"
        }
      ],
      "stateMutability": "view",
      "type": "function"
    },
    {
      "inputs": [],
      "name": "totalSupply",
      "outputs": [
        {
          "internalType": "uint256",
          "name": "",
          "type": "uint256"
        }
      ],
      "stateMutability": "view",
      "type": "function"
    },
    {
      "inputs": [
        {
          "internalType": "address",
          "name": "from",
          "type": "address"
        },
        {
          "internalType": "address",
          "name": "to",
          "type": "address"
        },
        {
          "internalType": "uint256",
          "name": "tokenId",
          "type": "uint256"
        }
      ],
      "name": "transferFrom",
      "outputs": [],
      "stateMutability": "nonpayable",
      "type": "function"
    },
    {
      "inputs": [
        {
          "internalType": "address",
          "name": "newOwner",
          "type": "address"
        }
      ],
      "name": "transferOwnership",
      "outputs": [],
      "stateMutability": "nonpayable",
      "type": "function"
    },
    {
      "inputs": [
        {
          "internalType": "uint256",
          "name": "skillWalletId",
          "type": "uint256"
        },
        {
          "components": [
            {
              "components": [
                {
                  "internalType": "uint256",
                  "name": "displayStringId",
                  "type": "uint256"
                },
                {
                  "internalType": "uint256",
                  "name": "level",
                  "type": "uint256"
                }
              ],
              "internalType": "struct Types.Skill",
              "name": "skill1",
              "type": "tuple"
            },
            {
              "components": [
                {
                  "internalType": "uint256",
                  "name": "displayStringId",
                  "type": "uint256"
                },
                {
                  "internalType": "uint256",
                  "name": "level",
                  "type": "uint256"
                }
              ],
              "internalType": "struct Types.Skill",
              "name": "skill2",
              "type": "tuple"
            },
            {
              "components": [
                {
                  "internalType": "uint256",
                  "name": "displayStringId",
                  "type": "uint256"
                },
                {
                  "internalType": "uint256",
                  "name": "level",
                  "type": "uint256"
                }
              ],
              "internalType": "struct Types.Skill",
              "name": "skill3",
              "type": "tuple"
            }
          ],
          "internalType": "struct Types.SkillSet",
          "name": "newSkillSet",
          "type": "tuple"
        }
      ],
      "name": "updateSkillSet",
      "outputs": [],
      "stateMutability": "nonpayable",
      "type": "function"
    },
    {
      "inputs": [],
      "name": "withdrawLink",
      "outputs": [],
      "stateMutability": "nonpayable",
      "type": "function"
    }
  ],
  "bytecode": "0x60c06040523480156200001157600080fd5b506040516200359c3803806200359c8339810160408190526200003491620002a2565b604080518082018252600b81526a14dada5b1b15d85b1b195d60aa1b60208083019190915282518084019093526002835261535760f01b908301526001600160601b0319606085811b821660a05286901b1660805290620000a56301ffc9a760e01b6001600160e01b036200019d16565b8151620000ba90600790602085019062000200565b508051620000d090600890602084019062000200565b50620000ec6380ac58cd60e01b6001600160e01b036200019d16565b62000107635b5e139f60e01b6001600160e01b036200019d16565b6200012263780e9d6360e01b6001600160e01b036200019d16565b50600090506200013a6001600160e01b03620001fb16565b600b80546001600160a01b0319166001600160a01b038316908117909155604051919250906000907f8be0079c531659141344cd1fd0a4f28419497f9722a3daafe3b4186f6b6457e0908290a3506015555050655af3107a400060145562000339565b6001600160e01b03198082161415620001d35760405162461bcd60e51b8152600401620001ca90620002e9565b60405180910390fd5b6001600160e01b0319166000908152600160208190526040909120805460ff19169091179055565b335b90565b828054600181600116156101000203166002900490600052602060002090601f016020900481019282601f106200024357805160ff191683800117855562000273565b8280016001018555821562000273579182015b828111156200027357825182559160200191906001019062000256565b506200028192915062000285565b5090565b620001fd91905b808211156200028157600081556001016200028c565b600080600060608486031215620002b7578283fd5b8351620002c48162000320565b6020850151909350620002d78162000320565b80925050604084015190509250925092565b6020808252601c908201527f4552433136353a20696e76616c696420696e7465726661636520696400000000604082015260600190565b6001600160a01b03811681146200033657600080fd5b50565b60805160601c60a05160601c61322a6200037260003980610ef952806117155250806109745280610d6052806116e6525061322a6000f3fe608060405234801561001057600080fd5b50600436106102115760003560e01c8063715018a611610125578063a22cb465116100ad578063c71ae3021161007c578063c71ae30214610444578063c87b56dd1461044c578063e985e9c51461045f578063f2fde38b14610472578063f3a4e1c01461048557610211565b8063a22cb465146103f8578063b37217a41461040b578063b50e77ff1461041e578063b88d4fde1461043157610211565b80638dc654a2116100f45780638dc654a2146103af5780638f4b3f59146103b757806394985ddd146103ca57806395d89b41146103dd5780639c655f0b146103e557610211565b8063715018a614610384578063739c1cba1461038c578063851b16f51461039f5780638da5cb5b146103a757610211565b806342842e0e116101a8578063619daf8011610177578063619daf80146103305780636352211e1461034357806365cbb7aa146103565780636c0360eb1461036957806370a082311461037157610211565b806342842e0e146102e457806342ca9629146102f75780634f6ccce71461030a5780635ad843da1461031d57610211565b806318160ddd116101e457806318160ddd1461028957806323b872dd1461029e5780632f745c59146102b1578063407ca1c7146102c457610211565b806301ffc9a71461021657806306fdde031461023f578063081812fc14610254578063095ea7b314610274575b600080fd5b610229610224366004612599565b6104a5565b60405161023691906127ae565b60405180910390f35b6102476104c8565b60405161023691906127dd565b6102676102623660046125d1565b61055f565b60405161023691906126c7565b610287610282366004612532565b6105ab565b005b610291610643565b60405161023691906130ed565b6102876102ac3660046123f4565b610654565b6102916102bf366004612532565b61068c565b6102d76102d23660046125d1565b6106bd565b6040516102369190612761565b6102876102f23660046123f4565b61077c565b6102916103053660046123a5565b610797565b6102916103183660046125d1565b6107dd565b61028761032b366004612578565b6107f9565b61028761033e3660046124d3565b610934565b6102676103513660046125d1565b610a9d565b6102676103643660046125d1565b610acb565b610247610b45565b61029161037f3660046123a5565b610ba6565b610287610bef565b61022961039a3660046123a5565b610c78565b610287610cb2565b610267610cfb565b610287610d0a565b6102296103c53660046125d1565b610e7a565b6102876103d8366004612578565b610eee565b610247610f44565b6102876103f3366004612601565b610fa5565b61028761040636600461249c565b611051565b6102916104193660046125d1565b61111f565b61028761042c3660046125d1565b611190565b61028761043f366004612434565b61123b565b610291611274565b61024761045a3660046125d1565b611280565b61022961046d3660046123c0565b6113c6565b6102876104803660046123a5565b6113f4565b6104986104933660046125d1565b6114b5565b6040516102369190613073565b6001600160e01b0319811660009081526001602052604090205460ff165b919050565b60078054604080516020601f60026000196101006001881615020190951694909404938401819004810282018101909252828152606093909290918301828280156105545780601f1061052957610100808354040283529160200191610554565b820191906000526020600020905b81548152906001019060200180831161053757829003601f168201915b505050505090505b90565b600061056a82611589565b61058f5760405162461bcd60e51b815260040161058690612d1a565b60405180910390fd5b506000908152600560205260409020546001600160a01b031690565b60006105b682610a9d565b9050806001600160a01b0316836001600160a01b031614156105ea5760405162461bcd60e51b815260040161058690612e21565b806001600160a01b03166105fc61159c565b6001600160a01b0316148061061857506106188161046d61159c565b6106345760405162461bcd60e51b815260040161058690612b88565b61063e83836115a0565b505050565b600061064f600361160e565b905090565b61066561065f61159c565b82611619565b6106815760405162461bcd60e51b815260040161058690612efa565b61063e83838361169e565b6001600160a01b03821660009081526002602052604081206106b4908363ffffffff6116b616565b90505b92915050565b60606106c960136116c2565b82106106e75760405162461bcd60e51b815260040161058690612c2f565b6000828152600d60205260409020546107125760405162461bcd60e51b815260040161058690613016565b6000828152600d60209081526040918290208054835181840281018401909452808452909183018282801561077057602002820191906000526020600020905b81546001600160a01b03168152600190910190602001808311610752575b50505050509050919050565b61063e8383836040518060200160405280600081525061123b565b60006107a282610ba6565b6001146107c15760405162461bcd60e51b815260040161058690612a71565b506001600160a01b03166000908152600f602052604090205490565b6000806107f160038463ffffffff6116c616565b509392505050565b61080161159c565b6001600160a01b0316610812610cfb565b6001600160a01b0316146108385760405162461bcd60e51b815260040161058690612d66565b61084260136116c2565b82106108605760405162461bcd60e51b815260040161058690612c2f565b6000828152600c60205260409020546001600160a01b03166108945760405162461bcd60e51b81526004016105869061296d565b60008281526010602052604090205460ff16156108c35760405162461bcd60e51b815260040161058690612eaf565b60008281526012602052604090205481146108f05760405162461bcd60e51b815260040161058690612f4b565b600082815260106020526040808220805460ff191660011790555183917f3b9fa7eba99fc1e57dd4fc92ee03c32e0766a7c33c9f6222a3e3d72788fe4ff691a25050565b61093d83610ba6565b1561095a5760405162461bcd60e51b8152600401610586906127f0565b6014546040516370a0823160e01b81526001600160a01b037f000000000000000000000000000000000000000000000000000000000000000016906370a08231906109a99030906004016126c7565b60206040518083038186803b1580156109c157600080fd5b505afa1580156109d5573d6000803e3d6000fd5b505050506040513d601f19601f820116820180604052508101906109f991906125e9565b1015610a175760405162461bcd60e51b815260040161058690612a14565b601680546001600160a01b0319166001600160a01b03851617905581518051601855602090810151601955808301518051601a55810151601b5560408301518051601c55810151601d558151610a7391601e9190840190612148565b50601780546001600160a01b03191633179055601554601454610a979190436116e2565b50505050565b60006106b7826040518060600160405280602981526020016131cc602991396003919063ffffffff61182f16565b6000610ad760136116c2565b8210610af55760405162461bcd60e51b815260040161058690612c2f565b6000828152600c60205260409020546001600160a01b0316610b295760405162461bcd60e51b81526004016105869061296d565b506000908152600c60205260409020546001600160a01b031690565b600a8054604080516020601f60026000196101006001881615020190951694909404938401819004810282018101909252828152606093909290918301828280156105545780601f1061052957610100808354040283529160200191610554565b60006001600160a01b038216610bce5760405162461bcd60e51b815260040161058690612be5565b6001600160a01b03821660009081526002602052604090206106b79061160e565b610bf761159c565b6001600160a01b0316610c08610cfb565b6001600160a01b031614610c2e5760405162461bcd60e51b815260040161058690612d66565b600b546040516000916001600160a01b0316907f8be0079c531659141344cd1fd0a4f28419497f9722a3daafe3b4186f6b6457e0908390a3600b80546001600160a01b0319169055565b60006001600160a01b038216610ca05760405162461bcd60e51b815260040161058690612e62565b610ca982610ba6565b60011492915050565b610cba61159c565b6001600160a01b0316610ccb610cfb565b6001600160a01b031614610cf15760405162461bcd60e51b815260040161058690612d66565b610cf961183c565b565b600b546001600160a01b031690565b610d1261159c565b6001600160a01b0316610d23610cfb565b6001600160a01b031614610d495760405162461bcd60e51b815260040161058690612d66565b6040516370a0823160e01b81526001600160a01b037f0000000000000000000000000000000000000000000000000000000000000000169063a9059cbb90339083906370a0823190610d9f9030906004016126c7565b60206040518083038186803b158015610db757600080fd5b505afa158015610dcb573d6000803e3d6000fd5b505050506040513d601f19601f82011682018060405250810190610def91906125e9565b6040518363ffffffff1660e01b8152600401610e0c929190612718565b602060405180830381600087803b158015610e2657600080fd5b505af1158015610e3a573d6000803e3d6000fd5b505050506040513d601f19601f82011682018060405250810190610e5e919061255c565b610cf95760405162461bcd60e51b815260040161058690612cee565b6000610e8660136116c2565b8210610ea45760405162461bcd60e51b815260040161058690612c2f565b6000828152600c60205260409020546001600160a01b0316610ed85760405162461bcd60e51b81526004016105869061296d565b5060009081526010602052604090205460ff1690565b336001600160a01b037f00000000000000000000000000000000000000000000000000000000000000001614610f365760405162461bcd60e51b815260040161058690612dea565b610f408282611879565b5050565b60088054604080516020601f60026000196101006001881615020190951694909404938401819004810282018101909252828152606093909290918301828280156105545780601f1061052957610100808354040283529160200191610554565b610faf60136116c2565b8210610fcd5760405162461bcd60e51b815260040161058690612c2f565b6000828152600e60209081526040918290208351805182558201516001820155818401518051600283015582015160038201558284015180516004830155909101516005909101555182907fd23a2a65f7344d10e89bbb695d455b453af9e45a3ee9ee31dcdbe0f45a3754cb90611045908490613073565b60405180910390a25050565b61105961159c565b6001600160a01b0316826001600160a01b0316141561108a5760405162461bcd60e51b815260040161058690612abf565b806006600061109761159c565b6001600160a01b03908116825260208083019390935260409182016000908120918716808252919093529120805460ff1916921515929092179091556110db61159c565b6001600160a01b03167f17307eab39ab6107e8899845ad3d59bd9653f200f220920489ca2b5937696c318360405161111391906127ae565b60405180910390a35050565b600061112b60136116c2565b82106111495760405162461bcd60e51b815260040161058690612c2f565b6000828152600c60205260409020546001600160a01b031661117d5760405162461bcd60e51b81526004016105869061296d565b5060009081526012602052604090205490565b61119a60136116c2565b81106111b85760405162461bcd60e51b815260040161058690612c2f565b6000818152600c602090815260408083208054336001600160a01b03199182168117909255600d845282852080546001810182559086529390942090920180549093168217909255905182917f40e6ddae3d2fcfa2a7f756d08e3eaff271dc6f378630bac80f5ff5b3da18975c9161123091906126c7565b60405180910390a250565b61124c61124661159c565b83611619565b6112685760405162461bcd60e51b815260040161058690612efa565b610a9784848484611882565b600061064f60136116c2565b606061128b82611589565b6112a75760405162461bcd60e51b815260040161058690612d9b565b60008281526009602090815260409182902080548351601f600260001961010060018616150201909316929092049182018490048402810184019094528084526060939283018282801561133c5780601f106113115761010080835404028352916020019161133c565b820191906000526020600020905b81548152906001019060200180831161131f57829003601f168201915b50505050509050606061134d610b45565b9050805160001415611361575090506104c3565b81511561139357808260405160200161137b929190612699565b604051602081830303815290604052925050506104c3565b8061139d856118b5565b6040516020016113ae929190612699565b60405160208183030381529060405292505050919050565b6001600160a01b03918216600090815260066020908152604080832093909416825291909152205460ff1690565b6113fc61159c565b6001600160a01b031661140d610cfb565b6001600160a01b0316146114335760405162461bcd60e51b815260040161058690612d66565b6001600160a01b0381166114595760405162461bcd60e51b8152600401610586906128f0565b600b546040516001600160a01b038084169216907f8be0079c531659141344cd1fd0a4f28419497f9722a3daafe3b4186f6b6457e090600090a3600b80546001600160a01b0319166001600160a01b0392909216919091179055565b6114bd6121c6565b6114c760136116c2565b82106114e55760405162461bcd60e51b815260040161058690612c2f565b6000828152600c60205260409020546001600160a01b03166115195760405162461bcd60e51b81526004016105869061296d565b506000908152600e6020908152604091829020825160a0810184528154606082019081526001830154608083015281528351808501855260028301548152600383015481850152818401528351808501855260048301548152600590920154928201929092529181019190915290565b60006106b760038363ffffffff61199016565b3390565b600081815260056020526040902080546001600160a01b0319166001600160a01b03841690811790915581906115d582610a9d565b6001600160a01b03167f8c5be1e5ebec7d5bd14f71427d1e84f3dd0314c0f7b2291e5b200ac8c7c3b92560405160405180910390a45050565b60006106b7826116c2565b600061162482611589565b6116405760405162461bcd60e51b815260040161058690612b3c565b600061164b83610a9d565b9050806001600160a01b0316846001600160a01b031614806116865750836001600160a01b031661167b8461055f565b6001600160a01b0316145b80611696575061169681856113c6565b949350505050565b60405162461bcd60e51b815260040161058690612fcc565b60006106b4838361199c565b5490565b60008080806116d586866119e1565b9097909650945050505050565b60007f00000000000000000000000000000000000000000000000000000000000000006001600160a01b0316634000aea07f000000000000000000000000000000000000000000000000000000000000000085878660405160200161174892919061266f565b6040516020818303038152906040526040518463ffffffff1660e01b815260040161177593929190612731565b602060405180830381600087803b15801561178f57600080fd5b505af11580156117a3573d6000803e3d6000fd5b505050506040513d601f19601f820116820180604052508101906117c7919061255c565b5060006117e88584306000808a815260200190815260200160002054611a3d565b60008681526020819052604090205490915061180b90600163ffffffff611a7716565b6000868152602081905260409020556118248582611a9c565b9150505b9392505050565b6000611696848484611acf565b601680546001600160a01b031990811690915560178054909116905560408051602081019182905260009081905261187691601e91612148565b50565b610f4081611b2e565b61188d84848461169e565b61189984848484611d09565b610a975760405162461bcd60e51b81526004016105869061289e565b6060816118da57506040805180820190915260018152600360fc1b60208201526104c3565b8160005b81156118f257600101600a820491506118de565b60608167ffffffffffffffff8111801561190b57600080fd5b506040519080825280601f01601f191660200182016040528015611936576020820181803683370190505b50859350905060001982015b831561198757600a840660300160f81b8282806001900393508151811061196557fe5b60200101906001600160f81b031916908160001a905350600a84049350611942565b50949350505050565b60006106b48383611dee565b815460009082106119bf5760405162461bcd60e51b81526004016105869061285c565b8260000182815481106119ce57fe5b9060005260206000200154905092915050565b815460009081908310611a065760405162461bcd60e51b815260040161058690612c77565b6000846000018481548110611a1757fe5b906000526020600020906002020190508060000154816001015492509250509250929050565b600084848484604051602001611a5694939291906127b9565b60408051601f19818403018152919052805160209091012095945050505050565b6000828201838110156106b45760405162461bcd60e51b8152600401610586906129dd565b60008282604051602001611ab192919061266f565b60405160208183030381529060405280519060200120905092915050565b60008281526001840160205260408120548281611aff5760405162461bcd60e51b815260040161058691906127dd565b50846000016001820381548110611b1257fe5b9060005260206000209060020201600101549150509392505050565b6000611b3a60136116c2565b601654909150611b53906001600160a01b031682611e06565b601780546000838152600c6020908152604080832080546001600160a01b039586166001600160a01b031991821617909155600d8352818420955486546001818101895597865284862001805491909616911617909355848252600e8152828220601854815560195481860155601a54600280830191909155601b546003830155601c546004830155601d546005909201919091556011909152919020601e8054611c0f949293919261010090821615026000190116046121f8565b506016546001600160a01b03166000908152600f6020908152604080832084905583835260129091529020829055611c476013611e10565b60175460165460405183926001600160a01b039081169216907f5796e76beef8ba950ee99c6230a1bf68db4dfd78b1b05ed40759137ba521911490611c909060189088906130b2565b60405180910390a4601754601654604051633233f4b160e01b81526001600160a01b03928316928392633233f4b192611ccf92879216906004016130f6565b600060405180830381600087803b158015611ce957600080fd5b505af1158015611cfd573d6000803e3d6000fd5b5050505061063e61183c565b6000611d1d846001600160a01b0316611e19565b611d2957506001611696565b6060611db7630a85bd0160e11b611d3e61159c565b888787604051602401611d5494939291906126db565b604051602081830303815290604052906001600160e01b0319166020820180516001600160e01b03838183161783525050505060405180606001604052806032815260200161319a603291396001600160a01b038816919063ffffffff611e1f16565b9050600081806020019051810190611dcf91906125b5565b6001600160e01b031916630a85bd0160e11b1492505050949350505050565b60009081526001919091016020526040902054151590565b610f408282611e2e565b80546001019055565b3b151590565b60606116968484600085611e48565b610f40828260405180602001604052806000815250611f09565b606082471015611e6a5760405162461bcd60e51b815260040161058690612af6565b611e7385611e19565b611e8f5760405162461bcd60e51b815260040161058690612f95565b60006060866001600160a01b03168587604051611eac919061267d565b60006040518083038185875af1925050503d8060008114611ee9576040519150601f19603f3d011682016040523d82523d6000602084013e611eee565b606091505b5091509150611efe828286611f3c565b979650505050505050565b611f138383611f75565b611f206000848484611d09565b61063e5760405162461bcd60e51b81526004016105869061289e565b60608315611f4b575081611828565b825115611f5b5782518084602001fd5b8160405162461bcd60e51b815260040161058691906127dd565b6001600160a01b038216611f9b5760405162461bcd60e51b815260040161058690612cb9565b611fa481611589565b15611fc15760405162461bcd60e51b815260040161058690612936565b611fcd6000838361063e565b6001600160a01b0382166000908152600260205260409020611ff5908263ffffffff61204516565b506120086003828463ffffffff61205116565b5060405181906001600160a01b038416906000907fddf252ad1be2c89b69c2b068fc378daa952ba7f163c4a11628f55a4df523b3ef908290a45050565b60006106b48383612067565b600061169684846001600160a01b0385166120b1565b60006120738383611dee565b6120a9575081546001818101845560008481526020808220909301849055845484825282860190935260409020919091556106b7565b5060006106b7565b600082815260018401602052604081205480612116575050604080518082018252838152602080820184815286546001818101895560008981528481209551600290930290950191825591519082015586548684528188019092529290912055611828565b8285600001600183038154811061212957fe5b9060005260206000209060020201600101819055506000915050611828565b828054600181600116156101000203166002900490600052602060002090601f016020900481019282601f1061218957805160ff19168380011785556121b6565b828001600101855582156121b6579182015b828111156121b657825182559160200191906001019061219b565b506121c292915061226d565b5090565b60405180606001604052806121d9612287565b81526020016121e6612287565b81526020016121f3612287565b905290565b828054600181600116156101000203166002900490600052602060002090601f016020900481019282601f1061223157805485556121b6565b828001600101855582156121b657600052602060002091601f016020900482015b828111156121b6578254825591600101919060010190612252565b61055c91905b808211156121c25760008155600101612273565b604051806040016040528060008152602001600081525090565b80356001600160a01b03811681146106b757600080fd5b600082601f8301126122c8578081fd5b813567ffffffffffffffff8111156122de578182fd5b6122f1601f8201601f191660200161310d565b915080825283602082850101111561230857600080fd5b8060208401602084013760009082016020015292915050565b600060c08284031215612332578081fd5b61233c606061310d565b90506123488383612374565b81526123578360408401612374565b60208201526123698360808401612374565b604082015292915050565b600060408284031215612385578081fd5b61238f604061310d565b9050813581526020820135602082015292915050565b6000602082840312156123b6578081fd5b6106b483836122a1565b600080604083850312156123d2578081fd5b6123dc84846122a1565b91506123eb84602085016122a1565b90509250929050565b600080600060608486031215612408578081fd5b833561241381613160565b9250602084013561242381613160565b929592945050506040919091013590565b60008060008060808587031215612449578081fd5b61245386866122a1565b935061246286602087016122a1565b925060408501359150606085013567ffffffffffffffff811115612484578182fd5b612490878288016122b8565b91505092959194509250565b600080604083850312156124ae578182fd5b6124b884846122a1565b915060208301356124c881613175565b809150509250929050565b600080600061010084860312156124e8578283fd5b6124f285856122a1565b92506125018560208601612321565b915060e084013567ffffffffffffffff81111561251c578182fd5b612528868287016122b8565b9150509250925092565b60008060408385031215612544578182fd5b61254e84846122a1565b946020939093013593505050565b60006020828403121561256d578081fd5b81516106b481613175565b6000806040838503121561258a578182fd5b50508035926020909101359150565b6000602082840312156125aa578081fd5b81356106b481613183565b6000602082840312156125c6578081fd5b81516106b481613183565b6000602082840312156125e2578081fd5b5035919050565b6000602082840312156125fa578081fd5b5051919050565b60008060e08385031215612613578182fd5b823591506123eb8460208501612321565b6000815180845261263c816020860160208601613134565b601f01601f19169290920160200192915050565b80518252602090810151910152565b8054825260010154602090910152565b918252602082015260400190565b6000825161268f818460208701613134565b9190910192915050565b600083516126ab818460208801613134565b83519083016126be828260208801613134565b01949350505050565b6001600160a01b0391909116815260200190565b6001600160a01b038581168252841660208201526040810183905260806060820181905260009061270e90830184612624565b9695505050505050565b6001600160a01b03929092168252602082015260400190565b600060018060a01b0385168252836020830152606060408301526127586060830184612624565b95945050505050565b6020808252825182820181905260009190848201906040850190845b818110156127a25783516001600160a01b03168352928401929184019160010161277d565b50909695505050505050565b901515815260200190565b93845260208401929092526001600160a01b03166040830152606082015260800190565b6000602082526106b46020830184612624565b60208082526046908201527f536b696c6c57616c6c65743a20546865726520697320536b696c6c57616c6c6560408201527f7420616c7265616479207265676973746572656420666f722074686973206164606082015265323932b9b99760d11b608082015260a00190565b60208082526022908201527f456e756d657261626c655365743a20696e646578206f7574206f6620626f756e604082015261647360f01b606082015260800190565b60208082526032908201527f4552433732313a207472616e7366657220746f206e6f6e20455243373231526560408201527131b2b4bb32b91034b6b83632b6b2b73a32b960711b606082015260800190565b60208082526026908201527f4f776e61626c653a206e6577206f776e657220697320746865207a65726f206160408201526564647265737360d01b606082015260800190565b6020808252601c908201527f4552433732313a20746f6b656e20616c7265616479206d696e74656400000000604082015260600190565b6020808252604a908201527f536b696c6c57616c6c65743a2054686520536b696c6c57616c6c65742069732060408201527f6e6f7420696e20616e7920636f6d6d756e6974792c20696e76616c696420536b60608201526934b6362bb0b63632ba1760b11b608082015260a00190565b6020808252601b908201527f536166654d6174683a206164646974696f6e206f766572666c6f770000000000604082015260600190565b60208082526038908201527f536b696c6c57616c6c65743a204e6f7420656e6f756768204c494e4b202d206660408201527f696c6c20636f6e74726163742077697468206661756365740000000000000000606082015260800190565b6020808252602e908201527f536b696c6c57616c6c65743a2054686520536b696c6c57616c6c6574206f776e60408201526d32b91034b99034b73b30b634b21760911b606082015260800190565b60208082526019908201527f4552433732313a20617070726f766520746f2063616c6c657200000000000000604082015260600190565b60208082526026908201527f416464726573733a20696e73756666696369656e742062616c616e636520666f6040820152651c8818d85b1b60d21b606082015260800190565b6020808252602c908201527f4552433732313a206f70657261746f7220717565727920666f72206e6f6e657860408201526b34b9ba32b73a103a37b5b2b760a11b606082015260800190565b60208082526038908201527f4552433732313a20617070726f76652063616c6c6572206973206e6f74206f7760408201527f6e6572206e6f7220617070726f76656420666f7220616c6c0000000000000000606082015260800190565b6020808252602a908201527f4552433732313a2062616c616e636520717565727920666f7220746865207a65604082015269726f206164647265737360b01b606082015260800190565b60208082526028908201527f536b696c6c57616c6c65743a20736b696c6c57616c6c65744964206f7574206f60408201526733103930b733b29760c11b606082015260800190565b60208082526022908201527f456e756d657261626c654d61703a20696e646578206f7574206f6620626f756e604082015261647360f01b606082015260800190565b6020808252818101527f4552433732313a206d696e7420746f20746865207a65726f2061646472657373604082015260600190565b6020808252601290820152712ab730b13632903a37903a3930b739b332b960711b604082015260600190565b6020808252602c908201527f4552433732313a20617070726f76656420717565727920666f72206e6f6e657860408201526b34b9ba32b73a103a37b5b2b760a11b606082015260800190565b6020808252818101527f4f776e61626c653a2063616c6c6572206973206e6f7420746865206f776e6572604082015260600190565b6020808252602f908201527f4552433732314d657461646174613a2055524920717565727920666f72206e6f60408201526e3732bc34b9ba32b73a103a37b5b2b760891b606082015260800190565b6020808252601f908201527f4f6e6c7920565246436f6f7264696e61746f722063616e2066756c66696c6c00604082015260600190565b60208082526021908201527f4552433732313a20617070726f76616c20746f2063757272656e74206f776e656040820152603960f91b606082015260800190565b6020808252602d908201527f536b696c6c57616c6c65743a20496e76616c696420736b696c6c57616c6c657460408201526c4f776e6572206164647265737360981b606082015260800190565b6020808252602b908201527f536b696c6c57616c6c65743a20536b696c6c2077616c6c657420616c7265616460408201526a1e481858dd1a5d985d195960aa1b606082015260800190565b60208082526031908201527f4552433732313a207472616e736665722063616c6c6572206973206e6f74206f6040820152701ddb995c881b9bdc88185c1c1c9bdd9959607a1b606082015260800190565b6020808252602a908201527f536b696c6c57616c6c65743a20496e76616c69642072616e646f6d206e756d6260408201526932b9103830b9b9b2b21760b11b606082015260800190565b6020808252601d908201527f416464726573733a2063616c6c20746f206e6f6e2d636f6e7472616374000000604082015260600190565b6020808252602a908201527f536b696c6c57616c6c65743a20536b696c6c57616c6c6574207472616e7366656040820152691c88191a5cd8589b195960b21b606082015260800190565b6020808252603a908201527f536b696c6c57616c6c65743a2054686520536b696c6c57616c6c65742069732060408201527f6e6f742070617274206f6620616e7920636f6d6d756e6974792e000000000000606082015260800190565b600060c082019050613086828451612650565b60208301516130986040840182612650565b5060408301516130ab6080840182612650565b5092915050565b60e081016130c0828561265f565b6130d0604083016002860161265f565b6130e0608083016004860161265f565b8260c08301529392505050565b90815260200190565b9182526001600160a01b0316602082015260400190565b60405181810167ffffffffffffffff8111828210171561312c57600080fd5b604052919050565b60005b8381101561314f578181015183820152602001613137565b83811115610a975750506000910152565b6001600160a01b038116811461187657600080fd5b801515811461187657600080fd5b6001600160e01b03198116811461187657600080fdfe4552433732313a207472616e7366657220746f206e6f6e20455243373231526563656976657220696d706c656d656e7465724552433732313a206f776e657220717565727920666f72206e6f6e6578697374656e7420746f6b656ea2646970667358221220e06f7e95b75e49be873d3d59e43145074e0a70467f14cdbe56a4ec6a832b260364736f6c634300060a0033",
  "linkReferences": {},
  "deployedLinkReferences": {}
}