{
  "_format": "hh-sol-artifact-1",
  "contractName": "Membership",
  "sourceName": "contracts/imported/Membership.sol",
  "abi": [
    {
      "inputs": [
        {
          "internalType": "enum Types.Template",
          "name": "_template",
          "type": "uint8"
        },
        {
          "internalType": "uint8",
          "name": "positionalValue1",
          "type": "uint8"
        },
        {
          "internalType": "uint8",
          "name": "positionalValue2",
          "type": "uint8"
        },
        {
          "internalType": "uint8",
          "name": "positionalValue3",
          "type": "uint8"
        }
      ],
      "stateMutability": "nonpayable",
      "type": "constructor"
    },
    {
      "inputs": [],
      "name": "communityAddress",
      "outputs": [
        {
          "internalType": "address",
          "name": "",
          "type": "address"
        }
      ],
      "stateMutability": "view",
      "type": "function"
    },
    {
      "inputs": [
        {
          "internalType": "uint16",
          "name": "",
          "type": "uint16"
        }
      ],
      "name": "positionalValues",
      "outputs": [
        {
          "internalType": "uint16",
          "name": "",
          "type": "uint16"
        }
      ],
      "stateMutability": "view",
      "type": "function"
    },
    {
      "inputs": [],
      "name": "template",
      "outputs": [
        {
          "internalType": "enum Types.Template",
          "name": "",
          "type": "uint8"
        }
      ],
      "stateMutability": "view",
      "type": "function"
    }
  ],
  "bytecode": "0x608060405234801561001057600080fd5b506040516102633803806102638339818101604052608081101561003357600080fd5b5080516020820151604083015160609093015160008054336001600160a01b03199182168117909255600180549091169091178082559394929385919060ff60a01b1916600160a01b83600381111561008857fe5b021790555060026020527fe90b7bceb6e7df5418fb78d8ee546e97c83a08bbccc01a0644d599ccd2a7c2e0805461ffff1990811660ff958616179091557f679795a0195a1b76cdebb7c51d74e058aee92919b8c3389af86ef24535e8a28c805482169385169390931790925560036000527f88601476d11616a71c5be67555bd1dff4b1cbf21533d2669b768b61518cfe1c3805490921692169190911790555061012c806101376000396000f3fe6080604052348015600f57600080fd5b5060043610603c5760003560e01c80636f2ddd9314604157806374b6240614606a57806386e476dd14609f575b600080fd5b604760c1565b60405180826003811115605657fe5b60ff16815260200191505060405180910390f35b608860048036036020811015607e57600080fd5b503561ffff1660d1565b6040805161ffff9092168252519081900360200190f35b60a560e7565b604080516001600160a01b039092168252519081900360200190f35b600154600160a01b900460ff1681565b60026020526000908152604090205461ffff1681565b6000546001600160a01b03168156fea26469706673582212204f926edcd83fd220a7872b84232f64dcc05be981da47a8bf0ba2b54a49bbe83264736f6c634300060a0033",
  "linkReferences": {},
  "deployedLinkReferences": {}
}