{
  "_format": "hh-sol-artifact-1",
  "contractName": "Community",
  "sourceName": "contracts/imported/Community.sol",
  "abi": [
    {
      "inputs": [
        {
          "internalType": "string",
          "name": "_url",
          "type": "string"
        },
        {
          "internalType": "uint256",
          "name": "_ownerId",
          "type": "uint256"
        },
        {
          "internalType": "uint256",
          "name": "_ownerCredits",
          "type": "uint256"
        },
        {
          "internalType": "string",
          "name": "_name",
          "type": "string"
        },
        {
          "internalType": "enum Types.Template",
          "name": "_template",
          "type": "uint8"
        },
        {
          "internalType": "uint8",
          "name": "_positionalValue1",
          "type": "uint8"
        },
        {
          "internalType": "uint8",
          "name": "_positionalValue2",
          "type": "uint8"
        },
        {
          "internalType": "uint8",
          "name": "_positionalValue3",
          "type": "uint8"
        },
        {
          "internalType": "address",
          "name": "skillWalletAddress",
          "type": "address"
        },
        {
          "internalType": "address",
          "name": "communityRegistryAddress",
          "type": "address"
        }
      ],
      "stateMutability": "nonpayable",
      "type": "constructor"
    },
    {
      "anonymous": false,
      "inputs": [
        {
          "indexed": true,
          "internalType": "address",
          "name": "account",
          "type": "address"
        },
        {
          "indexed": true,
          "internalType": "address",
          "name": "operator",
          "type": "address"
        },
        {
          "indexed": false,
          "internalType": "bool",
          "name": "approved",
          "type": "bool"
        }
      ],
      "name": "ApprovalForAll",
      "type": "event"
    },
    {
      "anonymous": false,
      "inputs": [
        {
          "indexed": true,
          "internalType": "address",
          "name": "_member",
          "type": "address"
        },
        {
          "indexed": false,
          "internalType": "uint256",
          "name": "_skillWalletTokenId",
          "type": "uint256"
        },
        {
          "indexed": false,
          "internalType": "uint256",
          "name": "_transferredTokens",
          "type": "uint256"
        }
      ],
      "name": "MemberAdded",
      "type": "event"
    },
    {
      "anonymous": false,
      "inputs": [
        {
          "indexed": true,
          "internalType": "address",
          "name": "_member",
          "type": "address"
        }
      ],
      "name": "MemberLeft",
      "type": "event"
    },
    {
      "anonymous": false,
      "inputs": [
        {
          "indexed": true,
          "internalType": "address",
          "name": "operator",
          "type": "address"
        },
        {
          "indexed": true,
          "internalType": "address",
          "name": "from",
          "type": "address"
        },
        {
          "indexed": true,
          "internalType": "address",
          "name": "to",
          "type": "address"
        },
        {
          "indexed": false,
          "internalType": "uint256[]",
          "name": "ids",
          "type": "uint256[]"
        },
        {
          "indexed": false,
          "internalType": "uint256[]",
          "name": "values",
          "type": "uint256[]"
        }
      ],
      "name": "TransferBatch",
      "type": "event"
    },
    {
      "anonymous": false,
      "inputs": [
        {
          "indexed": true,
          "internalType": "address",
          "name": "operator",
          "type": "address"
        },
        {
          "indexed": true,
          "internalType": "address",
          "name": "from",
          "type": "address"
        },
        {
          "indexed": true,
          "internalType": "address",
          "name": "to",
          "type": "address"
        },
        {
          "indexed": false,
          "internalType": "uint256",
          "name": "id",
          "type": "uint256"
        },
        {
          "indexed": false,
          "internalType": "uint256",
          "name": "value",
          "type": "uint256"
        }
      ],
      "name": "TransferSingle",
      "type": "event"
    },
    {
      "anonymous": false,
      "inputs": [
        {
          "indexed": false,
          "internalType": "string",
          "name": "value",
          "type": "string"
        },
        {
          "indexed": true,
          "internalType": "uint256",
          "name": "id",
          "type": "uint256"
        }
      ],
      "name": "URI",
      "type": "event"
    },
    {
      "inputs": [],
      "name": "activeMembersCount",
      "outputs": [
        {
          "internalType": "uint16",
          "name": "",
          "type": "uint16"
        }
      ],
      "stateMutability": "view",
      "type": "function"
    },
    {
      "inputs": [
        {
          "internalType": "address",
          "name": "_owner",
          "type": "address"
        },
        {
          "internalType": "uint256",
          "name": "_id",
          "type": "uint256"
        }
      ],
      "name": "balanceOf",
      "outputs": [
        {
          "internalType": "uint256",
          "name": "",
          "type": "uint256"
        }
      ],
      "stateMutability": "view",
      "type": "function"
    },
    {
      "inputs": [
        {
          "internalType": "address[]",
          "name": "_owners",
          "type": "address[]"
        },
        {
          "internalType": "uint256[]",
          "name": "_ids",
          "type": "uint256[]"
        }
      ],
      "name": "balanceOfBatch",
      "outputs": [
        {
          "internalType": "uint256[]",
          "name": "",
          "type": "uint256[]"
        }
      ],
      "stateMutability": "view",
      "type": "function"
    },
    {
      "inputs": [
        {
          "internalType": "address",
          "name": "_owner",
          "type": "address"
        }
      ],
      "name": "diToCreditsBalance",
      "outputs": [
        {
          "internalType": "uint256",
          "name": "",
          "type": "uint256"
        }
      ],
      "stateMutability": "view",
      "type": "function"
    },
    {
      "inputs": [],
      "name": "getMembership",
      "outputs": [
        {
          "internalType": "contract Membership",
          "name": "",
          "type": "address"
        }
      ],
      "stateMutability": "view",
      "type": "function"
    },
    {
      "inputs": [],
      "name": "getPositionalValues",
      "outputs": [
        {
          "internalType": "uint16[3]",
          "name": "",
          "type": "uint16[3]"
        }
      ],
      "stateMutability": "view",
      "type": "function"
    },
    {
      "inputs": [],
      "name": "getSkillWalletIds",
      "outputs": [
        {
          "internalType": "uint256[]",
          "name": "skillWalletIds",
          "type": "uint256[]"
        }
      ],
      "stateMutability": "view",
      "type": "function"
    },
    {
      "inputs": [],
      "name": "getTemplate",
      "outputs": [
        {
          "internalType": "enum Types.Template",
          "name": "",
          "type": "uint8"
        }
      ],
      "stateMutability": "view",
      "type": "function"
    },
    {
      "inputs": [
        {
          "internalType": "address",
          "name": "_owner",
          "type": "address"
        },
        {
          "internalType": "address",
          "name": "_operator",
          "type": "address"
        }
      ],
      "name": "isApprovedForAll",
      "outputs": [
        {
          "internalType": "bool",
          "name": "",
          "type": "bool"
        }
      ],
      "stateMutability": "view",
      "type": "function"
    },
    {
      "inputs": [
        {
          "internalType": "uint256",
          "name": "",
          "type": "uint256"
        }
      ],
      "name": "isMember",
      "outputs": [
        {
          "internalType": "bool",
          "name": "",
          "type": "bool"
        }
      ],
      "stateMutability": "view",
      "type": "function"
    },
    {
      "inputs": [
        {
          "internalType": "uint256",
          "name": "skillWalletTokenId",
          "type": "uint256"
        },
        {
          "internalType": "uint256",
          "name": "credits",
          "type": "uint256"
        }
      ],
      "name": "join",
      "outputs": [],
      "stateMutability": "nonpayable",
      "type": "function"
    },
    {
      "inputs": [
        {
          "internalType": "address",
          "name": "newMemberAddress",
          "type": "address"
        },
        {
          "internalType": "uint256",
          "name": "displayStringId1",
          "type": "uint256"
        },
        {
          "internalType": "uint256",
          "name": "level1",
          "type": "uint256"
        },
        {
          "internalType": "uint256",
          "name": "displayStringId2",
          "type": "uint256"
        },
        {
          "internalType": "uint256",
          "name": "level2",
          "type": "uint256"
        },
        {
          "internalType": "uint256",
          "name": "displayStringId3",
          "type": "uint256"
        },
        {
          "internalType": "uint256",
          "name": "level3",
          "type": "uint256"
        },
        {
          "internalType": "string",
          "name": "uri",
          "type": "string"
        },
        {
          "internalType": "uint256",
          "name": "credits",
          "type": "uint256"
        }
      ],
      "name": "joinNewMember",
      "outputs": [],
      "stateMutability": "nonpayable",
      "type": "function"
    },
    {
      "inputs": [
        {
          "internalType": "address",
          "name": "memberAddress",
          "type": "address"
        }
      ],
      "name": "leave",
      "outputs": [],
      "stateMutability": "nonpayable",
      "type": "function"
    },
    {
      "inputs": [],
      "name": "name",
      "outputs": [
        {
          "internalType": "string",
          "name": "",
          "type": "string"
        }
      ],
      "stateMutability": "view",
      "type": "function"
    },
    {
      "inputs": [
        {
          "internalType": "address",
          "name": "",
          "type": "address"
        },
        {
          "internalType": "address",
          "name": "",
          "type": "address"
        },
        {
          "internalType": "uint256[]",
          "name": "",
          "type": "uint256[]"
        },
        {
          "internalType": "uint256[]",
          "name": "",
          "type": "uint256[]"
        },
        {
          "internalType": "bytes",
          "name": "",
          "type": "bytes"
        }
      ],
      "name": "onERC1155BatchReceived",
      "outputs": [
        {
          "internalType": "bytes4",
          "name": "",
          "type": "bytes4"
        }
      ],
      "stateMutability": "nonpayable",
      "type": "function"
    },
    {
      "inputs": [
        {
          "internalType": "address",
          "name": "",
          "type": "address"
        },
        {
          "internalType": "address",
          "name": "",
          "type": "address"
        },
        {
          "internalType": "uint256",
          "name": "",
          "type": "uint256"
        },
        {
          "internalType": "uint256",
          "name": "",
          "type": "uint256"
        },
        {
          "internalType": "bytes",
          "name": "",
          "type": "bytes"
        }
      ],
      "name": "onERC1155Received",
      "outputs": [
        {
          "internalType": "bytes4",
          "name": "",
          "type": "bytes4"
        }
      ],
      "stateMutability": "nonpayable",
      "type": "function"
    },
    {
      "inputs": [],
      "name": "ownerId",
      "outputs": [
        {
          "internalType": "uint256",
          "name": "",
          "type": "uint256"
        }
      ],
      "stateMutability": "view",
      "type": "function"
    },
    {
      "inputs": [
        {
          "internalType": "address",
          "name": "_from",
          "type": "address"
        },
        {
          "internalType": "address",
          "name": "_to",
          "type": "address"
        },
        {
          "internalType": "uint256[]",
          "name": "_ids",
          "type": "uint256[]"
        },
        {
          "internalType": "uint256[]",
          "name": "_values",
          "type": "uint256[]"
        },
        {
          "internalType": "bytes",
          "name": "_data",
          "type": "bytes"
        }
      ],
      "name": "safeBatchTransferFrom",
      "outputs": [],
      "stateMutability": "nonpayable",
      "type": "function"
    },
    {
      "inputs": [
        {
          "internalType": "address",
          "name": "_from",
          "type": "address"
        },
        {
          "internalType": "address",
          "name": "_to",
          "type": "address"
        },
        {
          "internalType": "uint256",
          "name": "_id",
          "type": "uint256"
        },
        {
          "internalType": "uint256",
          "name": "_value",
          "type": "uint256"
        },
        {
          "internalType": "bytes",
          "name": "_data",
          "type": "bytes"
        }
      ],
      "name": "safeTransferFrom",
      "outputs": [],
      "stateMutability": "nonpayable",
      "type": "function"
    },
    {
      "inputs": [],
      "name": "scarcityScore",
      "outputs": [
        {
          "internalType": "uint256",
          "name": "",
          "type": "uint256"
        }
      ],
      "stateMutability": "view",
      "type": "function"
    },
    {
      "inputs": [
        {
          "internalType": "address",
          "name": "_operator",
          "type": "address"
        },
        {
          "internalType": "bool",
          "name": "_approved",
          "type": "bool"
        }
      ],
      "name": "setApprovalForAll",
      "outputs": [],
      "stateMutability": "nonpayable",
      "type": "function"
    },
    {
      "inputs": [
        {
          "internalType": "uint256",
          "name": "",
          "type": "uint256"
        }
      ],
      "name": "skillWalletIds",
      "outputs": [
        {
          "internalType": "uint256",
          "name": "",
          "type": "uint256"
        }
      ],
      "stateMutability": "view",
      "type": "function"
    },
    {
      "inputs": [
        {
          "internalType": "uint256",
          "name": "tokenId",
          "type": "uint256"
        },
        {
          "internalType": "address",
          "name": "owner",
          "type": "address"
        }
      ],
      "name": "skillWalletRegistered",
      "outputs": [],
      "stateMutability": "nonpayable",
      "type": "function"
    },
    {
      "inputs": [
        {
          "internalType": "bytes4",
          "name": "interfaceId",
          "type": "bytes4"
        }
      ],
      "name": "supportsInterface",
      "outputs": [
        {
          "internalType": "bool",
          "name": "",
          "type": "bool"
        }
      ],
      "stateMutability": "view",
      "type": "function"
    },
    {
      "inputs": [
        {
          "internalType": "address",
          "name": "_from",
          "type": "address"
        },
        {
          "internalType": "uint256",
          "name": "_value",
          "type": "uint256"
        }
      ],
      "name": "transferToCommunity",
      "outputs": [],
      "stateMutability": "nonpayable",
      "type": "function"
    },
    {
      "inputs": [
        {
          "internalType": "address",
          "name": "_to",
          "type": "address"
        },
        {
          "internalType": "uint256",
          "name": "_value",
          "type": "uint256"
        }
      ],
      "name": "transferToMember",
      "outputs": [],
      "stateMutability": "nonpayable",
      "type": "function"
    },
    {
      "inputs": [
        {
          "internalType": "uint256",
          "name": "",
          "type": "uint256"
        }
      ],
      "name": "uri",
      "outputs": [
        {
          "internalType": "string",
          "name": "",
          "type": "string"
        }
      ],
      "stateMutability": "view",
      "type": "function"
    }
  ],
  "bytecode": "0x60806040523480156200001157600080fd5b506040516200394838038062003948833981016040819052620000349162000b5b565b898183620000526301ffc9a760e01b6001600160e01b036200023c16565b62000066836001600160e01b036200029716565b600480546001600160a01b039384166001600160a01b0319918216179091556005805492909316911617905550620000ae630271189760e51b6001600160e01b036200023c16565b600780546001600160a01b038085166001600160a01b03199283161790925560088054928416929091169190911790556040518690869086908690620000f490620009a1565b62000103949392919062000cdb565b604051809103906000f08015801562000120573d6000803e3d6000fd5b50600680546001600160a01b0319166001600160a01b03929092169190911790558651620001569060099060208a0190620009af565b50600860009054906101000a90046001600160a01b03166001600160a01b031663b8ca27086040518163ffffffff1660e01b815260040160206040518083038186803b158015620001a657600080fd5b505afa158015620001bb573d6000803e3d6000fd5b505050506040513d601f19601f82011682018060405250810190620001e1919062000c4d565b620001ff57620001f96001600160e01b03620002b016565b6200022c565b620002126001600160e01b03620002b016565b600a8990556200022c89896001600160e01b036200030516565b5050505050505050505062001093565b6001600160e01b03198082161415620002725760405162461bcd60e51b8152600401620002699062000dc5565b60405180910390fd5b6001600160e01b0319166000908152602081905260409020805460ff19166001179055565b8051620002ac906003906020840190620009af565b5050565b620002db3060006040805160208101909152600081526339387000906001600160e01b03620004ab16565b620003033060016040805160208101909152600081526001906001600160e01b03620004ab16565b565b600b54601861ffff9091161115620003315760405162461bcd60e51b8152600401620002699062000ed4565b6000828152600d602052604090205460ff1615620003635760405162461bcd60e51b8152600401620002699062000f18565b6007546040516331a9108f60e11b81526000916001600160a01b031690636352211e906200039690869060040162000f90565b60206040518083038186803b158015620003af57600080fd5b505afa158015620003c4573d6000803e3d6000fd5b505050506040513d601f19601f82011682018060405250810190620003ea919062000b0c565b6000848152600d602052604081208054600160ff199091168117909155600e8054808301825592527fbb7b4a454dc3493923482f07822329ed19e8244eff582cc204f8554c3620c3fd909101859055600b805461ffff19811661ffff918216909301169190911790559050620004618183620005a8565b806001600160a01b03167fe17e0e2cd88e2144dd54f3d823c30d4569092bcac1aabaec1129883e9cc12d2e84846040516200049e92919062000f99565b60405180910390a2505050565b6001600160a01b038416620004d45760405162461bcd60e51b8152600401620002699062000f4f565b6000620004e96001600160e01b03620005d216565b90506200052b8160008762000507886001600160e01b03620005d716565b6200051b886001600160e01b03620005d716565b876001600160e01b036200061c16565b60008481526001602090815260408083206001600160a01b03808a1680865291909352818420805488019055905190929184169060008051602062003928833981519152906200057f908990899062000f99565b60405180910390a4620005a1816000878787876001600160e01b036200062416565b5050505050565b620002ac3083600084604051806020016040528060008152506200075b60201b62000eee1760201c565b335b90565b6040805160018082528183019092526060918291906020808301908036833701905050905082816000815181106200060b57fe5b602090810291909101015292915050565b505050505050565b62000643846001600160a01b03166200094b60201b6200109b1760201c565b156200061c5760405163f23a6e6160e01b81526001600160a01b0385169063f23a6e61906200067f908990899088908890889060040162000c94565b602060405180830381600087803b1580156200069a57600080fd5b505af1925050508015620006cd575060408051601f3d908101601f19168201909252620006ca9181019062000b2a565b60015b6200071f57620006dc62000fe0565b80620006e9575062000705565b8060405162461bcd60e51b815260040162000269919062000d0b565b60405162461bcd60e51b8152600401620002699062000d20565b6001600160e01b0319811663f23a6e6160e01b14620007525760405162461bcd60e51b8152600401620002699062000d7d565b50505050505050565b6001600160a01b038416620007845760405162461bcd60e51b8152600401620002699062000e45565b620007976001600160e01b03620005d216565b6001600160a01b0316856001600160a01b03161480620007d75750620007c56001600160e01b03620005d216565b6004546001600160a01b039081169116145b80620008035750620007f16001600160e01b03620005d216565b6005546001600160a01b039081169116145b806200083157506200083185620008226001600160e01b03620005d216565b6001600160e01b036200095116565b620008505760405162461bcd60e51b8152600401620002699062000dfc565b6000620008656001600160e01b03620005d216565b90506200088281878762000507886001600160e01b03620005d716565b60008481526001602090815260408083206001600160a01b038a16845290915290205483811015620008c85760405162461bcd60e51b8152600401620002699062000e8a565b60008581526001602090815260408083206001600160a01b038b8116808652919093528184208886039055898316808552938290208054890190559051909185169060008051602062003928833981519152906200092a908a908a9062000f99565b60405180910390a4620007528288888888886001600160e01b036200062416565b3b151590565b60006200096a83836200097360201b620010a11760201c565b90505b92915050565b6001600160a01b03918216600090815260026020908152604080832093909416825291909152205460ff1690565b61026380620036c583390190565b828054600181600116156101000203166002900490600052602060002090601f016020900481019282601f10620009f257805160ff191683800117855562000a22565b8280016001018555821562000a22579182015b8281111562000a2257825182559160200191906001019062000a05565b5062000a3092915062000a34565b5090565b620005d491905b8082111562000a30576000815560010162000a3b565b80516001600160a01b03811681146200096d57600080fd5b8051600481106200096d57600080fd5b600082601f83011262000a8a578081fd5b81516001600160401b038082111562000aa1578283fd5b604051601f8301601f19168101602001828111828210171562000ac2578485fd5b60405282815292508284830160200186101562000ade57600080fd5b62000af183602083016020880162000fa7565b50505092915050565b805160ff811681146200096d57600080fd5b60006020828403121562000b1e578081fd5b6200096a838362000a51565b60006020828403121562000b3c578081fd5b81516001600160e01b03198116811462000b54578182fd5b9392505050565b6000806000806000806000806000806101408b8d03121562000b7b578586fd5b8a516001600160401b038082111562000b92578788fd5b62000ba08e838f0162000a79565b9b5060208d01519a5060408d0151995060608d015191508082111562000bc4578788fd5b5062000bd38d828e0162000a79565b97505062000be58c60808d0162000a69565b955062000bf68c60a08d0162000afa565b945062000c078c60c08d0162000afa565b935062000c188c60e08d0162000afa565b925062000c2a8c6101008d0162000a51565b915062000c3c8c6101208d0162000a51565b90509295989b9194979a5092959850565b60006020828403121562000c5f578081fd5b5051919050565b6000815180845262000c8081602086016020860162000fa7565b601f01601f19169290920160200192915050565b6001600160a01b03868116825285166020820152604081018490526060810183905260a06080820181905260009062000cd09083018462000c66565b979650505050505050565b608081016004861062000cea57fe5b94815260ff9384166020820152918316604083015290911660609091015290565b6000602082526200096a602083018462000c66565b60208082526034908201527f455243313135353a207472616e7366657220746f206e6f6e204552433131353560408201527f526563656976657220696d706c656d656e746572000000000000000000000000606082015260800190565b60208082526028908201527f455243313135353a204552433131353552656365697665722072656a656374656040820152676420746f6b656e7360c01b606082015260800190565b6020808252601c908201527f4552433136353a20696e76616c696420696e7465726661636520696400000000604082015260600190565b60208082526029908201527f455243313135353a2063616c6c6572206973206e6f74206f776e6572206e6f7260408201526808185c1c1c9bdd995960ba1b606082015260800190565b60208082526025908201527f455243313135353a207472616e7366657220746f20746865207a65726f206164604082015264647265737360d81b606082015260800190565b6020808252602a908201527f455243313135353a20696e73756666696369656e742062616c616e636520666f60408201526939103a3930b739b332b960b11b606082015260800190565b60208082526024908201527f54686572652061726520616c7265616479203234206d656d626572732c20736f6040820152637272792160e01b606082015260800190565b60208082526018908201527f596f75206861766520616c7265616479206a6f696e6564210000000000000000604082015260600190565b60208082526021908201527f455243313135353a206d696e7420746f20746865207a65726f206164647265736040820152607360f81b606082015260800190565b90815260200190565b918252602082015260400190565b60005b8381101562000fc457818101518382015260200162000faa565b8381111562000fd4576000848401525b50505050565b60e01c90565b600060443d101562000ff257620005d4565b600481823e6308c379a062001008825162000fda565b146200101457620005d4565b6040513d600319016004823e80513d6001600160401b038083116024840183101715620010455750505050620005d4565b82840191508151925080831115620010615750505050620005d4565b503d830160208383010111156200107b57505050620005d4565b601f91909101601f1916810160200160405291505090565b61262280620010a36000396000f3fe608060405234801561001057600080fd5b50600436106101a85760003560e01c80637c8da89d116100f9578063c7ba3abe11610097578063e28cf15911610071578063e28cf15914610395578063e985e9c51461039d578063f23a6e61146103b0578063f242432a146103c3576101a8565b8063c7ba3abe1461035c578063cfeaeb8b1461036f578063d50c737714610382576101a8565b8063abb88bcc116100d3578063abb88bcc14610301578063b887b08714610316578063bc197c8114610329578063bedf77a614610349576101a8565b80637c8da89d146102c65780638f853115146102db578063a22cb465146102ee576101a8565b80631a98ce75116101665780633233f4b1116101405780633233f4b11461026b5780634e1273f41461027e5780635aa97b061461029e57806379e66b46146102b3576101a8565b80631a98ce751461022e5780632eb2c2d614610241578063321c48f214610256576101a8565b8062fdd58e146101ad578063019c08f5146101d657806301ffc9a7146101de57806306fdde03146101fe5780630e89341c14610213578063135b416514610226575b600080fd5b6101c06101bb366004611c56565b6103d6565b6040516101cd91906124d4565b60405180910390f35b6101c0610412565b6101f16101ec366004611d7a565b610418565b6040516101cd9190612053565b610206610458565b6040516101cd91906120aa565b610206610221366004611df3565b6104e6565b6101c061057e565b6101c061023c36600461196c565b610584565b61025461024f3660046119e3565b610590565b005b61025e61069e565b6040516101cd9190612087565b610254610279366004611e0b565b610721565b61029161028c366004611d12565b610856565b6040516101cd919061201b565b6102a661092a565b6040516101cd9190611fe6565b6102546102c1366004611e2f565b610aeb565b6102ce610c81565b6040516101cd919061209b565b6101c06102e9366004611df3565b610c8b565b6102546102fc366004611c25565b610ca9565b610309610cb7565b6040516101cd9190612073565b610254610324366004611c56565b610cc6565b61033c610337366004611a9d565b610ce3565b6040516101cd919061205e565b61025461035736600461196c565b610cf4565b61025461036a366004611c81565b610d2b565b61025461037d366004611c56565b610e31565b6101f1610390366004611df3565b610e4e565b610291610e63565b6101f16103ab3660046119ab565b610e68565b61033c6103be366004611bbf565b610e74565b6102546103d1366004611b46565b610e85565b600081156103ff5760405162461bcd60e51b81526004016103f690612222565b60405180910390fd5b61040983836110cf565b90505b92915050565b600a5481565b60006001600160e01b03198216636cdb3d1360e11b148061044957506001600160e01b031982166303a24d0760e21b145b8061040c575061040c8261111f565b6009805460408051602060026001851615610100026000190190941693909304601f810184900484028201840190925281815292918301828280156104de5780601f106104b3576101008083540402835291602001916104de565b820191906000526020600020905b8154815290600101906020018083116104c157829003601f168201915b505050505081565b60038054604080516020601f60026000196101006001881615020190951694909404938401819004810282018101909252828152606093909290918301828280156105725780601f1061054757610100808354040283529160200191610572565b820191906000526020600020905b81548152906001019060200180831161055557829003601f168201915b50505050509050919050565b600c5481565b600061040c82826110cf565b6105d4868680806020026020016040519081016040528093929190818152602001838360200280828437600092019190915250600192506105cf915050565b61115f565b156105f15760405162461bcd60e51b81526004016103f6906121a4565b610694888888888080602002602001604051908101604052809392919081815260200183836020028082843760009201919091525050604080516020808c0282810182019093528b82529093508b92508a91829185019084908082843760009201919091525050604080516020601f8b0181900481028201810190925289815292508991508890819084018382808284376000920191909152506111a392505050565b5050505050505050565b60065460408051636f2ddd9360e01b815290516000926001600160a01b031691636f2ddd93916004808301926020929190829003018186803b1580156106e357600080fd5b505afa1580156106f7573d6000803e3d6000fd5b505050506040513d601f19601f8201168201806040525081019061071b9190611db2565b90505b90565b600f546001600160a01b03166107495760405162461bcd60e51b81526004016103f6906122fe565b600f546001600160a01b038281169116146107765760405162461bcd60e51b81526004016103f6906122fe565b6000828152600d602052604081208054600160ff199091168117909155600e8054808301825592527fbb7b4a454dc3493923482f07822329ed19e8244eff582cc204f8554c3620c3fd909101839055600b805461ffff19811661ffff91821690930116919091179055600f546010546107f8916001600160a01b031690610cc6565b600f80546001600160a01b0319169055600060108190556040516001600160a01b038316917fe17e0e2cd88e2144dd54f3d823c30d4569092bcac1aabaec1129883e9cc12d2e9161084a9186916124dd565b60405180910390a25050565b6060610897838380806020026020016040519081016040528093929190818152602001838360200280828437600092019190915250600192506105cf915050565b156108b45760405162461bcd60e51b81526004016103f6906121a4565b610921858580806020026020016040519081016040528093929190818152602001838360200280828437600092019190915250506040805160208089028281018201909352888252909350889250879182918501908490808284376000920191909152506113b492505050565b95945050505050565b610932611794565b600654604051633a5b120360e11b81526000916001600160a01b0316906374b62406906109649060019060040161209b565b60206040518083038186803b15801561097c57600080fd5b505afa158015610990573d6000803e3d6000fd5b505050506040513d601f19601f820116820180604052508101906109b49190611dd1565b600654604051633a5b120360e11b81529192506000916001600160a01b03909116906374b62406906109eb9060029060040161209b565b60206040518083038186803b158015610a0357600080fd5b505afa158015610a17573d6000803e3d6000fd5b505050506040513d601f19601f82011682018060405250810190610a3b9190611dd1565b600654604051633a5b120360e11b81529192506000916001600160a01b03909116906374b6240690610a729060039060040161209b565b60206040518083038186803b158015610a8a57600080fd5b505afa158015610a9e573d6000803e3d6000fd5b505050506040513d601f19601f82011682018060405250810190610ac29190611dd1565b6040805160608101825261ffff9586168152938516602085015293169282019290925291505090565b600b54601861ffff9091161115610b145760405162461bcd60e51b81526004016103f69061237f565b6000828152600d602052604090205460ff1615610b435760405162461bcd60e51b81526004016103f6906123c3565b6007546040516331a9108f60e11b81526000916001600160a01b031690636352211e90610b749086906004016124d4565b60206040518083038186803b158015610b8c57600080fd5b505afa158015610ba0573d6000803e3d6000fd5b505050506040513d601f19601f82011682018060405250810190610bc4919061198f565b6000848152600d602052604081208054600160ff199091168117909155600e8054808301825592527fbb7b4a454dc3493923482f07822329ed19e8244eff582cc204f8554c3620c3fd909101859055600b805461ffff19811661ffff918216909301169190911790559050610c398183610cc6565b806001600160a01b03167fe17e0e2cd88e2144dd54f3d823c30d4569092bcac1aabaec1129883e9cc12d2e8484604051610c749291906124dd565b60405180910390a2505050565b600b5461ffff1681565b600e8181548110610c9857fe5b600091825260209091200154905081565b610cb38282611480565b5050565b6006546001600160a01b031690565b610cb3308360008460405180602001604052806000815250610eee565b63bc197c8160e01b95945050505050565b6040516001600160a01b038216907fbea911b50ccdd2233b28faa49766c3cbd0631608f32e5a724d7b83b32b681ad090600090a250565b600b54601861ffff9091161115610d545760405162461bcd60e51b81526004016103f69061237f565b610d5c6117b2565b506040805160a081018252606081018a8152608082018a905281528151808301835288815260208082018990528083019190915282518084018452878152908101869052818301526010839055600f80546001600160a01b0319166001600160a01b038d811691909117909155600754925162c33b5f60e71b81529192169063619daf8090610df3908d9085908890600401611f86565b600060405180830381600087803b158015610e0d57600080fd5b505af1158015610e21573d6000803e3d6000fd5b5050505050505050505050505050565b610cb3823060008460405180602001604052806000815250610eee565b600d6020526000908152604090205460ff1681565b606090565b600061040983836110a1565b63f23a6e6160e01b95945050505050565b8315610ea35760405162461bcd60e51b81526004016103f6906121a4565b610ee68686868686868080601f016020809104026020016040519081016040528093929190818152602001838380828437600092019190915250610eee92505050565b505050505050565b6001600160a01b038416610f145760405162461bcd60e51b81526004016103f690612267565b610f1c61154e565b6001600160a01b0316856001600160a01b03161480610f505750610f3e61154e565b6004546001600160a01b039081169116145b80610f705750610f5e61154e565b6005546001600160a01b039081169116145b80610f825750610f82856103ab61154e565b610f9e5760405162461bcd60e51b81526004016103f6906121d9565b6000610fa861154e565b9050610fc8818787610fb988611552565b610fc288611552565b87610ee6565b60008481526001602090815260408083206001600160a01b038a1684529091529020548381101561100b5760405162461bcd60e51b81526004016103f690612335565b60008581526001602090815260408083206001600160a01b038b811680865291909352818420888603905589831680855293829020805489019055905190918516907fc3d58168c5ae7397731d063d5bbf3d657854427343f4c083240f7aacaa2d0f629061107c908a908a906124dd565b60405180910390a4611092828888888888611596565b50505050505050565b3b151590565b6001600160a01b03918216600090815260026020908152604080832093909416825291909152205460ff1690565b60006001600160a01b0383166110f75760405162461bcd60e51b81526004016103f690612159565b5060009081526001602090815260408083206001600160a01b03949094168352929052205490565b60006001600160e01b03198216636cdb3d1360e11b148061115057506001600160e01b031982166303a24d0760e21b145b8061040c575061040c826116a4565b6000805b8351811015611199578284828151811061117957fe5b6020026020010151141561119157600191505061040c565b600101611163565b5060009392505050565b81518351146111c45760405162461bcd60e51b81526004016103f69061248c565b6001600160a01b0384166111ea5760405162461bcd60e51b81526004016103f690612267565b6111f261154e565b6001600160a01b0316856001600160a01b03161480611226575061121461154e565b6004546001600160a01b039081169116145b80611246575061123461154e565b6005546001600160a01b039081169116145b806112585750611258856103ab61154e565b6112745760405162461bcd60e51b81526004016103f6906122ac565b600061127e61154e565b905061128e818787878787610ee6565b60005b845181101561134e5760008582815181106112a857fe5b6020026020010151905060008583815181106112c057fe5b60209081029190910181015160008481526001835260408082206001600160a01b038e1683529093529190912054909150818110156113115760405162461bcd60e51b81526004016103f690612335565b60009283526001602081815260408086206001600160a01b038e811688529252808620938590039093558a16845292208054909101905501611291565b50846001600160a01b0316866001600160a01b0316826001600160a01b03167f4a39dc06d4c0dbc64b70af90fd698a233a518aa5d07e595d983b8c0526c8f7fb878760405161139e92919061202e565b60405180910390a4610ee68187878787876116c3565b606081518351146113d75760405162461bcd60e51b81526004016103f690612443565b606083516001600160401b03811180156113f057600080fd5b5060405190808252806020026020018201604052801561141a578160200160208202803683370190505b50905060005b84518110156114785761145985828151811061143857fe5b602002602001015185838151811061144c57fe5b60200260200101516103d6565b82828151811061146557fe5b6020908102919091010152600101611420565b509392505050565b816001600160a01b031661149261154e565b6001600160a01b031614156114b95760405162461bcd60e51b81526004016103f6906123fa565b80600260006114c661154e565b6001600160a01b03908116825260208083019390935260409182016000908120918716808252919093529120805460ff19169215159290921790915561150a61154e565b6001600160a01b03167f17307eab39ab6107e8899845ad3d59bd9653f200f220920489ca2b5937696c31836040516115429190612053565b60405180910390a35050565b3390565b60408051600180825281830190925260609182919060208083019080368337019050509050828160008151811061158557fe5b602090810291909101015292915050565b6115a8846001600160a01b031661109b565b15610ee65760405163f23a6e6160e01b81526001600160a01b0385169063f23a6e61906115e19089908990889088908890600401611f41565b602060405180830381600087803b1580156115fb57600080fd5b505af192505050801561162b575060408051601f3d908101601f1916820190925261162891810190611d96565b60015b61167457611637612517565b80611642575061165c565b8060405162461bcd60e51b81526004016103f691906120aa565b60405162461bcd60e51b81526004016103f6906120bd565b6001600160e01b0319811663f23a6e6160e01b146110925760405162461bcd60e51b81526004016103f690612111565b6001600160e01b03191660009081526020819052604090205460ff1690565b6116d5846001600160a01b031661109b565b15610ee65760405163bc197c8160e01b81526001600160a01b0385169063bc197c819061170e9089908990889088908890600401611ee4565b602060405180830381600087803b15801561172857600080fd5b505af1925050508015611758575060408051601f3d908101601f1916820190925261175591810190611d96565b60015b61176457611637612517565b6001600160e01b0319811663bc197c8160e01b146110925760405162461bcd60e51b81526004016103f690612111565b60405180606001604052806003906020820280368337509192915050565b60405180606001604052806117c56117e4565b81526020016117d26117e4565b81526020016117df6117e4565b905290565b604051806040016040528060008152602001600081525090565b60008083601f84011261180f578182fd5b5081356001600160401b03811115611825578182fd5b602083019150836020808302850101111561183f57600080fd5b9250929050565b600082601f830112611856578081fd5b81356001600160401b0381111561186b578182fd5b602080820261187b8282016124eb565b8381529350818401858301828701840188101561189757600080fd5b600092505b848310156118ba57803582526001929092019190830190830161189c565b505050505092915050565b60008083601f8401126118d6578182fd5b5081356001600160401b038111156118ec578182fd5b60208301915083602082850101111561183f57600080fd5b600082601f830112611914578081fd5b81356001600160401b03811115611929578182fd5b61193c601f8201601f19166020016124eb565b915080825283602082850101111561195357600080fd5b8060208401602084013760009082016020015292915050565b60006020828403121561197d578081fd5b8135611988816125be565b9392505050565b6000602082840312156119a0578081fd5b8151611988816125be565b600080604083850312156119bd578081fd5b82356119c8816125be565b915060208301356119d8816125be565b809150509250929050565b60008060008060008060008060a0898b0312156119fe578384fd5b8835611a09816125be565b97506020890135611a19816125be565b965060408901356001600160401b0380821115611a34578586fd5b611a408c838d016117fe565b909850965060608b0135915080821115611a58578586fd5b611a648c838d016117fe565b909650945060808b0135915080821115611a7c578384fd5b50611a898b828c016118c5565b999c989b5096995094979396929594505050565b600080600080600060a08688031215611ab4578081fd5b8535611abf816125be565b94506020860135611acf816125be565b935060408601356001600160401b0380821115611aea578283fd5b611af689838a01611846565b94506060880135915080821115611b0b578283fd5b611b1789838a01611846565b93506080880135915080821115611b2c578283fd5b50611b3988828901611904565b9150509295509295909350565b60008060008060008060a08789031215611b5e578182fd5b8635611b69816125be565b95506020870135611b79816125be565b9450604087013593506060870135925060808701356001600160401b03811115611ba1578283fd5b611bad89828a016118c5565b979a9699509497509295939492505050565b600080600080600060a08688031215611bd6578081fd5b8535611be1816125be565b94506020860135611bf1816125be565b9350604086013592506060860135915060808601356001600160401b03811115611c19578182fd5b611b3988828901611904565b60008060408385031215611c37578182fd5b8235611c42816125be565b9150602083013580151581146119d8578182fd5b60008060408385031215611c68578182fd5b8235611c73816125be565b946020939093013593505050565b60008060008060008060008060006101208a8c031215611c9f578283fd5b8935611caa816125be565b985060208a0135975060408a0135965060608a0135955060808a0135945060a08a0135935060c08a0135925060e08a01356001600160401b03811115611cee578182fd5b611cfa8c828d01611904565b9250506101008a013590509295985092959850929598565b60008060008060408587031215611d27578182fd5b84356001600160401b0380821115611d3d578384fd5b611d49888389016117fe565b90965094506020870135915080821115611d61578384fd5b50611d6e878288016117fe565b95989497509550505050565b600060208284031215611d8b578081fd5b8135611988816125d6565b600060208284031215611da7578081fd5b8151611988816125d6565b600060208284031215611dc3578081fd5b815160048110611988578182fd5b600060208284031215611de2578081fd5b815161ffff81168114611988578182fd5b600060208284031215611e04578081fd5b5035919050565b60008060408385031215611e1d578182fd5b8235915060208301356119d8816125be565b60008060408385031215611e41578182fd5b50508035926020909101359150565b6000815180845260208085019450808401835b83811015611e7f57815187529582019590820190600101611e63565b509495945050505050565b60008151808452815b81811015611eaf57602081850181015186830182015201611e93565b81811115611ec05782602083870101525b50601f01601f19169290920160200192915050565b80518252602090810151910152565b6001600160a01b0386811682528516602082015260a060408201819052600090611f1090830186611e50565b8281036060840152611f228186611e50565b8381036080850152611f348186611e8a565b9998505050505050505050565b6001600160a01b03868116825285166020820152604081018490526060810183905260a060808201819052600090611f7b90830184611e8a565b979650505050505050565b600061010060018060a01b0386168352611fa4602084018651611ed5565b6020850151611fb66060850182611ed5565b506040850151611fc960a0850182611ed5565b508060e0840152611fdc81840185611e8a565b9695505050505050565b60608101818360005b600381101561201257815161ffff16835260209283019290910190600101611fef565b50505092915050565b6000602082526104096020830184611e50565b6000604082526120416040830185611e50565b82810360208401526109218185611e50565b901515815260200190565b6001600160e01b031991909116815260200190565b6001600160a01b0391909116815260200190565b602081016004831061209557fe5b91905290565b61ffff91909116815260200190565b6000602082526104096020830184611e8a565b60208082526034908201527f455243313135353a207472616e7366657220746f206e6f6e20455243313135356040820152732932b1b2b4bb32b91034b6b83632b6b2b73a32b960611b606082015260800190565b60208082526028908201527f455243313135353a204552433131353552656365697665722072656a656374656040820152676420746f6b656e7360c01b606082015260800190565b6020808252602b908201527f455243313135353a2062616c616e636520717565727920666f7220746865207a60408201526a65726f206164647265737360a81b606082015260800190565b6020808252818101527f436f6d6d756e697479204e46542063616e277420626520747261736665726564604082015260600190565b60208082526029908201527f455243313135353a2063616c6c6572206973206e6f74206f776e6572206e6f7260408201526808185c1c1c9bdd995960ba1b606082015260800190565b60208082526025908201527f436f6d6d756e697479204e465420646f65736e2774206861766520612062616c60408201526430b731b29760d91b606082015260800190565b60208082526025908201527f455243313135353a207472616e7366657220746f20746865207a65726f206164604082015264647265737360d81b606082015260800190565b60208082526032908201527f455243313135353a207472616e736665722063616c6c6572206973206e6f74206040820152711bdddb995c881b9bdc88185c1c1c9bdd995960721b606082015260800190565b60208082526019908201527f436f6d6d756e6974793a20496e76616c6964206f776e65722e00000000000000604082015260600190565b6020808252602a908201527f455243313135353a20696e73756666696369656e742062616c616e636520666f60408201526939103a3930b739b332b960b11b606082015260800190565b60208082526024908201527f54686572652061726520616c7265616479203234206d656d626572732c20736f6040820152637272792160e01b606082015260800190565b60208082526018908201527f596f75206861766520616c7265616479206a6f696e6564210000000000000000604082015260600190565b60208082526029908201527f455243313135353a2073657474696e6720617070726f76616c20737461747573604082015268103337b91039b2b63360b91b606082015260800190565b60208082526029908201527f455243313135353a206163636f756e747320616e6420696473206c656e677468604082015268040dad2e6dac2e8c6d60bb1b606082015260800190565b60208082526028908201527f455243313135353a2069647320616e6420616d6f756e7473206c656e677468206040820152670dad2e6dac2e8c6d60c31b606082015260800190565b90815260200190565b918252602082015260400190565b6040518181016001600160401b038111828210171561250957600080fd5b604052919050565b60e01c90565b600060443d10156125275761071e565b600481823e6308c379a061253b8251612511565b146125455761071e565b6040513d600319016004823e80513d6001600160401b038160248401118184111715612574575050505061071e565b8284019150815192508083111561258e575050505061071e565b503d830160208383010111156125a65750505061071e565b601f91909101601f1916810160200160405291505090565b6001600160a01b03811681146125d357600080fd5b50565b6001600160e01b0319811681146125d357600080fdfea2646970667358221220796406dd69ec74b6e7358bf9e8adb2d208e54b35d09fe0641d06aae3ede3b52e64736f6c634300060a0033608060405234801561001057600080fd5b506040516102633803806102638339818101604052608081101561003357600080fd5b5080516020820151604083015160609093015160008054336001600160a01b03199182168117909255600180549091169091178082559394929385919060ff60a01b1916600160a01b83600381111561008857fe5b021790555060026020527fe90b7bceb6e7df5418fb78d8ee546e97c83a08bbccc01a0644d599ccd2a7c2e0805461ffff1990811660ff958616179091557f679795a0195a1b76cdebb7c51d74e058aee92919b8c3389af86ef24535e8a28c805482169385169390931790925560036000527f88601476d11616a71c5be67555bd1dff4b1cbf21533d2669b768b61518cfe1c3805490921692169190911790555061012c806101376000396000f3fe6080604052348015600f57600080fd5b5060043610603c5760003560e01c80636f2ddd9314604157806374b6240614606a57806386e476dd14609f575b600080fd5b604760c1565b60405180826003811115605657fe5b60ff16815260200191505060405180910390f35b608860048036036020811015607e57600080fd5b503561ffff1660d1565b6040805161ffff9092168252519081900360200190f35b60a560e7565b604080516001600160a01b039092168252519081900360200190f35b600154600160a01b900460ff1681565b60026020526000908152604090205461ffff1681565b6000546001600160a01b03168156fea26469706673582212204f926edcd83fd220a7872b84232f64dcc05be981da47a8bf0ba2b54a49bbe83264736f6c634300060a0033c3d58168c5ae7397731d063d5bbf3d657854427343f4c083240f7aacaa2d0f62",
  "linkReferences": {},
  "deployedLinkReferences": {}
}